:100000000C9470050C940E1E0C94E71D0C94541F58
:100010000C94541F0C94541F0C9498050C94C51CFC
:100020000C9498050C9498050C9498050C949805DC
:100030000C9498050C9498050C9498050C949805CC
:100040000C949D1D0C9498050C946B1D0C94451DEF
:100050000C9498050C9498050C9498050C949805AC
:100060000C94351E0C949805000000002300260017
:10007000290000000000003E5B4F5B3E3E6B4F6B73
:100080003E1C3E7C3E1C183C7E3C181C577D571C79
:100090001C5E7F5E1C00183C1800FFE7C3E7FF00F2
:1000A00018241800FFE7DBE7FF30483A060E262940
:1000B000792926407F050507407F05253F5A3CE703
:1000C0003C5A7F3E1C1C08081C1C3E7F14227F22C9
:1000D000145F5F005F5F06097F017F006689956A94
:1000E000606060606094A2FFA29408047E0408101F
:1000F000207E201008082A1C08081C2A08081E1048
:100100001010100C1E0C1E0C30383E3830060E3EFF
:100110000E06000000000000005F0000000700075E
:1001200000147F147F14242A7F2A12231308646288
:1001300036495620500008070300001C22410000E9
:1001400041221C002A1C7F1C2A08083E0808008047
:1001500070300008080808080000606000201008DF
:1001600004023E5149453E00427F400072494949E0
:10017000462141494D331814127F10274545453912
:100180003C4A494931412111090736494949364616
:100190004949291E000014000000403400000008F6
:1001A0001422411414141414004122140802015999
:1001B00009063E415D594E7C1211127C7F49494926
:1001C000363E414141227F4141413E7F49494941BB
:1001D0007F090909013E414151737F0808087F00EA
:1001E000417F41002040413F017F081422417F4070
:1001F0004040407F021C027F7F0408107F3E414147
:10020000413E7F090909063E4151215E7F091929B6
:1002100046264949493203017F01033F4040403FA0
:100220001F2040201F3F4038403F631408146303E1
:10023000047804036159494D43007F414141020460
:10024000081020004141417F040201020440404067
:100250004040000307080020545478407F2844445D
:10026000383844444428384444287F385454541877
:1002700000087E090218A4A49C787F080404780072
:10028000447D40002040403D007F10284400004154
:100290007F40007C047804787C0804047838444467
:1002A0004438FC1824241818242418FC7C0804045E
:1002B00008485454542404043F44243C4040207CC7
:1002C0001C2040201C3C4030403C44281028444C1A
:1002D0009090907C4464544C4400083641000000E7
:1002E000770000004136080002010204023C262388
:1002F000263C1EA1A161123A4040207A3854545540
:100300005921555579412254547842215554784009
:1003100020545579400C1E52721239555555593991
:100320005454545939555454580000457C410002E6
:10033000457D420001457C407D1211127DF028254B
:1003400028F07C545545002054547C547C0A097F85
:100350004932494949323A4444443A324A48483099
:100360003A4141217A3A42402078009DA0A07D3D4B
:100370004242423D3D4040403D3C24FF2424487ED3
:100380004943662B2FFC2F2BFF0929F620C0887EBE
:10039000090320545479410000447D413048484AC3
:1003A00032384040227A007A0A0A727D0D19317D76
:1003B0002629292F28262929292630484D4020384A
:1003C0000808080808080808382F10C8ACBA2F1009
:1003D0002834FA00007B000008142A142222142A70
:1003E00014085500550055AA55AA55AAFF55FF55A2
:1003F000FF000000FF00101010FF00141414FF0095
:100400001010FF00FF1010F010F0141414FC001472
:1004100014F700FF0000FF00FF1414F404FC141490
:1004200017101F10101F101F1414141F001010108D
:10043000F0000000001F101010101F10101010F01E
:1004400010000000FF101010101010101010FF10FE
:10045000000000FF140000FF00FF00001F10170045
:1004600000FC04F414141710171414F404F400001E
:10047000FF00F714141414141414F700F7141414D0
:10048000171410101F101F141414F4141010F0106F
:10049000F000001F101F0000001F14000000FC14DB
:1004A0000000F010F01010FF10FF141414FF1410CF
:1004B00010101F00000000F010FFFFFFFFFFF0F022
:1004C000F0F0F0FFFFFF0000000000FFFF0F0F0F34
:1004D0000F0F3844443844FC4A4A4A347E0202062C
:1004E00006027E027E0263554941633844443C045F
:1004F000407E201E2006027E020299A5E7A5991CD7
:100500002A492A1C4C7201724C304A4D4D303048F9
:10051000784830BC625A463D3E494949007E010157
:10052000017E2A2A2A2A2A44445F444440514A44EC
:100530004040444A51400000FF0103E080FF0000BA
:1005400008086B6B083612362436060F090F0600B2
:100550000018180000001010003040FF0101001FBB
:1005600001011E00191D1712003C3C3C3C0000001C
:100570000000000103070F1F3F7F0080C0E0F0F87C
:10058000FCFE00000000240027002A0000000008F4
:10059000000201000003040700000000000000004A
:1005A00002DB40A4A62EAF2000A1C8D300408DAE30
:1005B000D580A80102040810204080010204081020
:1005C0002001020408102000000000250028002B54
:1005D00000040404040404040402020202020203EC
:1005E000030303030300006000000000000000009C
:1005F000000000000000E00000000000000000001B
:100600000000000001E00000000000000000000009
:1006100000000001F00000000000000000000000E9
:10062000000003F0000000000000000000000000D7
:100630000007F000000000000000000000000000C3
:1006400007F8000000000000000000000000000F9C
:10065000F800000003C0007E000001E0007F0FF8FA
:1006600000000003C000FE000001E000FFEFF80002
:10067000000003C000FE000001E000FFFFF80000E2
:100680000003C000F00000000F007FFE7FC00000EC
:1006900003C000F00000000F003FFE7FF83FF1FBB9
:1006A000CFFCFEF3BC3DEFE01FFE7FFF7FFBFFDFD3
:1006B000FEFEFFBC3DEFE01FC6FFFF7FFBFFDFFE3E
:1006C000FEFFBC3DEFE00FE3C7FE787BC3DE1EF00C
:1006D000FFBC3DEF0007FF87FC787BC3DE1EF0F810
:1006E0003C3DEF0001FFFFF0007BC3C01EF0F03C7B
:1006F0003DEF0001F37FE03FFBC3CFFEF0F03C3D58
:10070000EF0003E33F807FFBC3DFFEF0F03C3DEFF3
:100710000007E73C00787BC3DE1EF0F03C3DEF00B5
:1007200007FFBE00787BC3DE1EF0F03C3DEF000704
:10073000FFFE00787BC3DE1EF0F03C3DEF000FFFB4
:10074000FE007FFBFFDFFEF0F03FFDEFE00FFFFF5D
:10075000007FFBFFDFFEF0F03FFDEFE00FF9FF0051
:100760003E79F9CF9EF0F01F3DE7E01FF1FF00005A
:10077000000000000000000000001F80FF007FFF5D
:10078000FFFFFFFFFFFFFFFFE01C007F007FFFFF79
:10079000FFFEB46D888D18E000001F007FFFFFFF93
:1007A000FE95AD7DB577E000000F007FFFFFFFFEF7
:1007B000A5AD9D8D19E0000006007FFFFFFFFEB58F
:1007C000ADEDB57EE00000000000018000000000FB
:1007D0000000000000038000000000000000000096
:1007E00007C000000000000000000007C00000007B
:1007F0000000000000000FC000000000000000002A
:10080000001FE00000000000000000001FE00000EA
:10081000000000000000003FE000000000000000B9
:1008200000003FF00000000000000000007FF0002A
:100830000000000000001FF87FF000000000000032
:10084000003FFE7FF0000000000000003FFF7FF04F
:10085000000000000000001FFFFBE000000000009F
:1008600000000FFFF9FFC00000000000000FFFF9BB
:10087000FFF800000000000007FFF1FFFF0000008C
:1008800000000003FC73FFFF80000000000001FE79
:100890003FFFFF80000000000000FF1E0FFF000070
:1008A00000000000007FFE1FFC00000000000000B0
:1008B0003FFFFFF8000000000000000FDFFFE00036
:1008C0000000000000001F19FFC000000000000031
:1008D000003F3CFF00000000000000007E7CF800AC
:1008E000000000000000007FFE7C0000000000000F
:1008F0000000FFFFFC0000000000000000FFFFFE02
:100900000000000000000000FFFFFE0000000000EB
:10091000000001FFEFFE0000000000000001FFCF1B
:10092000FE0000000000000003FF07FE00000000C2
:1009300000000003FC07FE0000000000000003F0C0
:1009400003FE00000000000000018000FE00000027
:10095000000000000000007E000000000000000019
:1009600000003E000000000000000000000C00003D
:1009700000000000078000FC000003C0000000072A
:100980008001FC000003C0000000078001FC0000A3
:1009900003C0000000078001E00000001E0000000E
:1009A000078001E00000001E007FE3F79FF9FDE7EC
:1009B000787BDFC0FFF7FFBFFDFDFF787BDFC0FF67
:1009C000F7FFBFFDFDFF787BDFC0F0F787BC3DE19F
:1009D000FF787BDE00F0F787BC3DE1F0787BDE003E
:1009E00000F787803DE1E0787BDE007FF7879FFDA1
:1009F000E1E0787BDE00FFF787BFFDE1E0787BDE9A
:100A000000F0F787BC3DE1E0787BDE00F0F787BCC3
:100A10003DE1E0787BDE00F0F787BC3DE1E0787BEC
:100A2000DE00FFF7FFBFFDE1E07FFBDFC0FFF7FF68
:100A3000BFFDE1E07FFBDFC07CF3F39F3DE1E03EE3
:100A40007BCFC00000000000000000000000FFFF9E
:100A5000FFFFFFFFFFFFFFFFC0FFFFFFFFFD68DBA2
:100A6000111A31C0FFFFFFFFFD2B5AFB6AEFC0FFD9
:100A7000FFFFFFFD4B5B3B1A33C0FFFFFFFFFD6B2A
:100A80005BDB6AFDC06661696C65642C20636F6422
:100A90006520007375636365737321002200FF2175
:100AA0000020627073005B5358313236385D204449
:100AB000617461726174653A09007375636365738B
:100AC0007321005472616E736D697474696E67206E
:100AD0007061636B6574202E2E2E20005E1FEF2741
:100AE00011241FBECFEFD8E0DEBFCDBF23E0A8EDBD
:100AF000B1E001C01D92AB3CB207E1F711E0A0E00C
:100B0000B1E0E4ECF7E502C005900D92A83DB10715
:100B1000D9F715E0CFE6D5E004C02197FE010E9489
:100B20009E2ACE36D107C9F70E947C200C94D52B83
:100B30000C940000089508950895AF92BF92CF924B
:100B4000DF92EF92FF920F931F93CF93DF936C018D
:100B50007B018B01040F151FEB015E01AE18BF086E
:100B6000C017D10759F06991D601ED91FC91019020
:100B7000F081E02DC6010995892B79F7C501DF9138
:100B8000CF911F910F91FF90EF90DF90CF90BF908A
:100B9000AF900895FC01538D448D252F30E0842FB4
:100BA00090E0821B930B541710F0CF960895019795
:100BB0000895FC01918D828D981761F0A28DAE0F82
:100BC000BF2FB11D5D968C91928D9F5F9F73928F09
:100BD00090E008958FEF9FEF0895FC01918D828D35
:100BE000981731F0828DE80FF11D858D90E0089502
:100BF0008FEF9FEF0895FC01918D228D892F90E05A
:100C0000805C9F4F821B91098F739927089587EA13
:100C100092E00E94FB0521E0892B09F420E0822F5D
:100C2000089580E090E0892B29F00E940706811149
:100C30000C9400000895FC01A48DA80FB92FB11DDC
:100C4000A35ABF4F2C91848D90E001968F73992702
:100C5000848FA689B7892C93A089B1898C918370E0
:100C600080648C93938D848D981306C00288F389D9
:100C7000E02D80818F7D80830895EF92FF920F9306
:100C80001F93CF93DF93EC0181E0888F9B8D8C8D38
:100C900098131AC0E889F989808185FF15C09FB72C
:100CA000F894EE89FF896083E889F98980818370EF
:100CB000806480839FBF81E090E0DF91CF911F919E
:100CC0000F91FF90EF900895F62E0B8D10E00F5FBF
:100CD0001F4F0F731127E02E8C8D8E110CC00FB695
:100CE00007FCFACFE889F989808185FFF5CFCE012D
:100CF0000E941B06F1CFEB8DEC0FFD2FF11DE35A87
:100D0000FF4FF0829FB7F8940B8FEA89FB898081AF
:100D10008062CFCF0F931F93CF93DF938C01D0E0EE
:100D2000C0E0F801EC0FFD1F6491662341F087EAF3
:100D300092E00E943D06892B11F02196F2CFCE0160
:100D4000DF91CF911F910F910895CF93DF93EC0125
:100D5000888D8823B9F0AA89BB89E889F9898C91A3
:100D600085FD03C0808186FD0DC00FB607FCF7CF5F
:100D70008C9185FFF2CF808185FFEDCFCE010E945F
:100D80001B06E9CFDF91CF910895833081F028F4DD
:100D9000813099F08230A9F008958730A9F0883029
:100DA000C9F08430B1F4809180008F7D03C08091C0
:100DB00080008F7780938000089584B58F7784BDFD
:100DC000089584B58F7DFBCF8091B0008F7780939D
:100DD000B00008958091B0008F7DF9CF1F93CF931D
:100DE000DF93282F30E0F901E457FA4F8491F9019D
:100DF000ED54FA4FD491F901EF52FA4FC491CC233C
:100E0000A9F0162F81110E94C506EC2FF0E0EE0F1D
:100E1000FF1FE953FA4FA591B4918FB7F894EC9165
:100E2000111108C0D095DE23DC938FBFDF91CF91E5
:100E30001F910895DE2BF8CFCF93DF9390E0FC0154
:100E4000ED54FA4F24918F529A4FFC0184918823DC
:100E5000D1F090E0880F991FFC01EE57FA4FA59151
:100E6000B491FC01E953FA4FC591D49161110EC0C0
:100E70009FB7F8948C91E22FE0958E238C93288174
:100E8000E223E8839FBFDF91CF9108958FB7F89455
:100E9000EC91E22BEC938FBFF6CF3FB7F8948091A3
:100EA000910290919202A0919302B091940226B582
:100EB000A89B05C02F3F19F00196A11DB11D3FBF92
:100EC000BA2FA92F982F8827BC01CD01620F711D61
:100ED000811D911D42E0660F771F881F991F4A955B
:100EE000D1F708958F929F92AF92BF92CF92DF92E7
:100EF000EF92FF924B015C010E944D076B017C0158
:100F00000E944D076C197D098E099F09683E734048
:100F100081059105A8F321E0821A9108A108B10882
:100F200088EEC80E83E0D81EE11CF11C81149104E8
:100F3000A104B10429F7FF90EF90DF90CF90BF900C
:100F4000AF909F908F9008952FB7F89460918D0285
:100F500070918E0280918F02909190022FBF089520
:100F60000895EF92FF920F931F93CF93DF93EC01BD
:100F7000EC80FD806E157F050CF070C057FF04C03B
:100F8000240F351F50E040E08E819F81FA01E20F6F
:100F9000F31F8E179F071CF49C01241B350B1216A0
:100FA00013060CF05BC0922F842F8695869586954C
:100FB0008E9DD0018F9DB00D11246A0F7B1FAF8DC8
:100FC000B8A1A60FB71F477049F188E0841B482FCE
:100FD000682F70E0FB01E658FA4FE491281708F0FB
:100FE00063C0621B71092FEF30E002C03595279571
:100FF0006A95E2F7E2230130110539F0B0F10230D1
:10100000110561F58C91E82702C08C91E82BEC93D7
:10101000941720F12C813D81A20FB31FE92FE41B0F
:10102000E83078F00230110521F58E2F9C919095D3
:101030009C932C813D81A20FB31F88508830B0F75C
:10104000E770EE2359F0F0E0EE58FA4FE4910130EA
:101050001105F9F010F10230110519F1DF91CF916E
:101060001F910F91FF90EF900895E0958C91E823E8
:10107000CECF81E00115110509F480E081959E2F06
:101080008C932C813D81A20FB31F98509830C0F7EC
:10109000D7CF8C91E82BEC93E1CFE0958C91E823AE
:1010A000FACF8C91E827F7CF0130110509F4ADCFC5
:1010B000E0F20230110509F4A5CFAE0DBF1DAECF91
:1010C0000F931F93CF93DF9377FF04C0260F371F33
:1010D00070E060E0DC011496CD91DC91FB01E20F41
:1010E000F31FCE17DF071CF49E01261B370B1216C9
:1010F00013064CF5FA0157FD3796A3E0F595E795F1
:10110000AA95E1F7EC9FD001ED9FB00DFC9FB00DCB
:1011100011246A0F7B1FDC015F96ED91FC91E60FB5
:10112000F71F4770552781E090E001C0880F4A956E
:10113000EAF7482F0130110559F0A8F02E0F3F1F94
:1011400002301105E1F0DF91CF911F910F910895C9
:101150002E0F3F1FE217F307B1F38191DF011197C3
:10116000842B8C93F7CF80952E0F3F1FE217F30748
:1011700051F39191DF01119798239C93F7CFE217D8
:10118000F30709F38191DF01119784278C93F7CF3F
:101190000F931F93FA01DC0156964C9156974230FB
:1011A000E9F04330A1F1413061F514964D915C9125
:1011B000DA01AE1BBF0BFD01E21BF30B77FD0BC089
:1011C000DC0116964D915C916417750724F4AB0110
:1011D000BF010E9460081F910F91089514964D91D0
:1011E0005C91DA01A61BB70BBD0161507109DC01EE
:1011F00016964D915C91DA01AE1BBF0BFD01E21B0F
:10120000F30B77FDE8CFAF010E94B107E4CF16964C
:101210004D915C91DA01A61BB70BBD0161507109BC
:10122000CDCF0F931F93FA01DC0156964C91569740
:101230004230A9F0433091F1413019F514964D91A7
:101240005C91DA01AE1BBF0BFD013197F7FD04C0C5
:10125000AB01BF010E94B1071F910F910895149631
:101260004D915C91DA01A61BB70BBD01DC0116960E
:101270004D915C91DA01AE1BBF0BFD013197621BF2
:10128000730BF7FDE9CFDC0116964D915C91E417E5
:10129000F50714F7AF010E946008DECF16964D9156
:1012A0005C91DA01A61BB70BBD01621B730BCECF9D
:1012B000FC0177FD64C080859185681779070CF083
:1012C0005EC057FD5CC082859385481759070CF0B6
:1012D00056C086898230B1F0833029F1813041F4E3
:1012E00084819581841B950BAB01BC016150710910
:1012F0002130310509F108F443C02230310509F4E9
:1013000063C0089584819581DC01A61BB70BBD01E4
:101310006150710986819781DC01A41BB50BAD0179
:1013200041505109E5CF86819781861B970BBA0101
:10133000AC0141505109DCCFCA0157FD0796A3E02B
:1013400095958795AA95E1F7A481B5818A9F90012B
:101350008B9F300D9A9F300D1124620F731F078CE5
:10136000F0A1E02DE60FF71F4770552721E030E090
:1013700001C0220F4A95EAF78081822B808308956D
:10138000CA0157FD079633E0959587953A95E1F7A1
:10139000A481B5818A9F90018B9F300D9A9F300D5B
:1013A0001124620F731F078CF0A1E02DE60FF71FC9
:1013B0004770552781E090E001C0880F4A95EAF711
:1013C000809590818923DACFCA0157FD079623E0E3
:1013D000959587952A95E1F7A481B5818A9F90011B
:1013E0008B9F300D9A9F300D1124620F731F078C55
:1013F000F0A1E02DE60FF71F4770552721E030E000
:1014000001C0220F4A95EAF780818227B7CF85ED88
:101410008093BC008091BC0084FDFCCF1092A002A0
:10142000089520914502260F3327331F21323105BD
:10143000ECF42091A002FC0190E080E0243069F0FF
:1014400082E00895A09145022191AC014B5D5D4F72
:10145000A40FB52FB11D2C930196861798F3809198
:101460004502680F6093450280E0089581E0089589
:10147000E091A2028091A102E81730F4F0E0EB5F66
:10148000FD4F808190E008958FEF9FEF0895909138
:10149000A2028091A1022FEF3FEF981748F4E92FA5
:1014A000F0E0EB5FFD4F208130E09F5F9093A20260
:1014B000C90108958091A1029091A202891B990B04
:1014C0000895CF92DF92EF92FF920F931F93CF93E5
:1014D000DF937C01CB018A012091A602222389F0AF
:1014E000EB016B01C40ED51ECC15DD0569F06991C9
:1014F000D701ED91FC910190F081E02DC701099594
:10150000F3CF642F0E94110AC801DF91CF911F9180
:101510000F91FF90EF90DF90CF900895CF93DF93DE
:101520001F92CDB7DEB769832091A6022223F9F07E
:101530002091A302203258F021E030E0FC013383F7
:10154000228390E080E00F90DF91CF910895809109
:10155000A402E82FF0E0EB51FE4F998190838F5F5A
:101560008093A4028093A30281E090E0ECCF61E03D
:10157000CE0101960E94110AF7CF2091A30281E0CB
:10158000213208F044C08091A0028111FCCF8091EB
:10159000A50292E09093A00291E090939F029FEFAA
:1015A0009093680210928A0220938902A5EEB1E01E
:1015B000E9E6F2E090E0291331C010928B0290919D
:1015C0008B02880F892B80938B0280919E02813041
:1015D00049F510929E0280918B028093BB0080910E
:1015E000BC0083FDF8CF85EC8093BC008091A00205
:1015F0008230E1F3809168028F3FB1F08091680200
:101600008032A1F080916802803391F084E01092E2
:10161000A4021092A3021092A60208953D91319364
:101620009F5FC9CF85EEE0CF80E0F1CF82E0EFCFC2
:1016300083E0EDCF0895FC016370668B8481958112
:1016400026813781613039F0633029F091878087B6
:10165000338722870895318720879387828708956B
:101660002F923F924F925F926F927F928F929F92B2
:10167000AF92BF92CF92DF92EF92FF920F931F93A0
:10168000CF93DF93CDB7DEB76A970FB6F894DEBF7E
:101690000FBECDBF9A8F898F7A8369834A01D22E7C
:1016A00018870F833701BC2CDC0159962D913C9192
:1016B0005A972115310509F015C118968D919C9105
:1016C0001997681779070CF0D7C11A968D919C91DC
:1016D000481759070CF0D0C14C2C512CB6E0CB9ECA
:1016E000600D711D11247C876B87161617060CF090
:1016F000C3C1EA2DF0E0FA87E98793E0EE0FFF1F00
:101700009A95E1F7F88BEF87CF01840F951F181694
:1017100019060CF0B1C1A98DBA8D58968C91811122
:1017200004C0BFEABD1508F4D394A98DBA8DED911C
:10173000FC9111970284F385E02DCD010995B5E068
:10174000DB9EC0011124E981FA81FC83EB83312CFB
:10175000212C9C012E583F4F388F2F8B4A2D50E063
:101760005E8B4D8BEF89F88DE20DF31D44919E82C7
:101770008D82D12CC12C69817A81620D731D7A8B87
:10178000698B842F90E09C8B8B8BE98DFA8DA081E7
:10179000B18140FF82C0F1E0BF126FC0AF126DC0D7
:1017A0001C96ED91FC912F813885A4014C0D5D1D97
:1017B00069897A89898D9A8D0995EB89FC89F595D6
:1017C000E7954E2F5FEFC51AD50A6D817E818D8911
:1017D0009E89680F791F7E836D8398E0C916D104B6
:1017E00081F6AFEF2A1A3A0AEB81FC81E40DF51D70
:1017F000FC83EB83F5E02F16310409F0B3CF2F8182
:10180000388526153705B9F0A98DBA8DED91FC9173
:10181000B1E0BB1257C0AB1255C069817A816B5FD2
:101820007F4F0088F189E02D830128E030E0A4019A
:10183000898D9A8D0995A98DBA8DED91FC9111979D
:101840000688F789E02DCD016A960FB6F894DEBFC1
:101850000FBECDBFDF91CF911F910F91FF90EF9001
:10186000DF90CF90BF90AF909F908F907F906F90C0
:101870005F904F903F902F9009941E96ED91FC91B0
:10188000EF80F88409851A8592014D815E816B8114
:101890007C81898D9A8D099590CF2F813885261569
:1018A000370509F48ACF31E0B31207C0A31205C08F
:1018B0001C96ED91FC91930178CF1E96ED91FC91D1
:1018C0007301E0CF6B857C85641975090684F78503
:1018D000E02D73010F8518899201A401898D9A8DDD
:1018E0000995A9CFF9013496949132974591549175
:1018F000D91AB7E0DB9E400D511D1124F901259145
:1019000034913C8B2B8BFA0125903490FA0132965E
:10191000749031963491398B32966490319644901C
:1019200041E04C1518F04A1508F07FC0662D062CD2
:10193000000C770B7C836B83842D042C000C990B9B
:101940009E838D83A98DBA8DED91FC9111970284B0
:10195000F385E02DCD010995512CD12CC12CEA2D18
:10196000F0E0FA87E9872B2D30E03C872B87A40134
:10197000440D511D47FC5A95588F4F8B69817A81D0
:10198000660D711D67FC7A957E876D877989C7160C
:1019900008F051CF2C2D30E04D815E81420F531F56
:1019A000A985BA854A9FC0014B9F900D5A9F900D03
:1019B0001124FC01E80DF91DF88BEF87852D612CB2
:1019C0004F89588D420F531F5E8B4D8B671408F063
:1019D00050C044244394480E877041F4C1010196DD
:1019E000EB89FC89E20DF31DD4901C01D7FE19C0D0
:1019F000A98DBA8DED91FC91662D70E0B1E0BB121E
:101A000019C0AB1217C02D853E85620F731F048469
:101A1000F585E02D2F8138854D895E89898D9A8DD8
:101A20000995DD0C6394842DD1CF1E821D821C820A
:101A30001B8288CF4B815C81640F751FAB85BC8591
:101A40006A9FC0016B9F900D7A9F900D1124698150
:101A50007A81680F791F0684F785E02DEF80F8847E
:101A600009851A859D014F855889898D9A8D09951B
:101A7000D8CF570CC3948ACF6A960FB6F894DEBFBE
:101A80000FBECDBFDF91CF911F910F91FF90EF90CF
:101A9000DF90CF90BF90AF909F908F907F906F908E
:101AA0005F904F903F902F9008958F929F92AF92AA
:101AB000CF92EF92FF920F931F93CF93DF93EC019E
:101AC000262F898D9A8D009709F051C06A30D1F484
:101AD0001D861C868D8948E0849F900111248E8587
:101AE0009F85820F931F9F878E8781E090E0DF9113
:101AF000CF911F910F91FF90EF90CF90AF909F905B
:101B00008F9008956D3089F3CC88AD888F898823B4
:101B1000C1F08C859D8536E0C39E800D911D1124FA
:101B2000488559854817590764F44E855F851D8699
:101B30001C8638E0A39EC0011124840F951F9F8747
:101B40008E87EA88FB88088919894E855F856C85B0
:101B50007D85CE010E94300B2C898C859D8546E0C9
:101B6000249F800D911D11249D878C87BECF6A30E4
:101B700069F41D861C86FC013896E4912D898E85BA
:101B80009F85E29F800D911D1124ADCF6D3009F42A
:101B9000ACCFFC0134963491631708F4A6CF32968B
:101BA000E491E61708F4A1CFFC0132968590949059
:101BB000462F431B342F47E0349F800C911C112487
:101BC000F401329634913196E4913323A9F1EE2356
:101BD00099F1CC88F4013596E491AD884F8944237E
:101BE00001F10E2E000CFF0BE30FF11DCE9EA001A4
:101BF000CF9E500D11246C857D85460F571F68853B
:101C00007985641775076CF44E855F851D861C8683
:101C1000FC013896E491AE9E400D511D11245F8762
:101C20004E87EA88FB88088919894E855F856C850F
:101C30007D85CE010E94300BF4013496E4912C890D
:101C40008C859D85E29F800D911D11248DCF6F9213
:101C50007F928F929F92AF92BF92CF92DF92EF923C
:101C6000FF920F931F93CF93DF93EC016B015A0107
:101C700039014801E881F9810284F385E02D099555
:101C8000E881F9810288F389E02D87019301A5019C
:101C9000B601CE010995A501480D591D41505109C4
:101CA000E881F9810288F389E02D9301B601CE0124
:101CB0000995E881F9810088F189E02D9401A50159
:101CC000B601CE010995C60CD71CB6016150710949
:101CD000E881F9810088F189E02D9401A501CE0108
:101CE0000995E881F9810688F789E02DCE01DF9119
:101CF000CF911F910F91FF90EF90DF90CF90BF9009
:101D0000AF909F908F907F906F9009946F927F9289
:101D10008F929F92AF92BF92CF92DF92EF92FF92FB
:101D20000F931F93CF93DF935C01EB016A0149018D
:101D300038018701DC01ED91FC916217730719F5F9
:101D4000641675062CF0962D872D3A01C92ED82ED3
:101D50009601261937092F5F3F4F048CF58DE02D32
:101D6000A301BE01C5010995DF91CF911F910F918C
:101D7000FF90EF90DF90CF90BF90AF909F908F90AB
:101D80007F906F9008954615570591F426173707F1
:101D900024F0892D4B01C22FD82F9E012819390913
:101DA0002F5F3F4F068CF78DE02DA601B401DACFEF
:101DB0000284F385E02D0995D501ED91FC9104880D
:101DC000F589E02D83019401A601BE01C5010995A5
:101DD000D501ED91FC910688F789E02DC501DF91D1
:101DE000CF911F910F91FF90EF90DF90CF90BF9018
:101DF000AF909F908F907F906F900994EF92FF9299
:101E00000F931F93DC011A960D911C911B97189646
:101E10002D913C911997ED91FC9100A0F1A1E02D3D
:101E20007B0150E040E070E060E009951F910F9168
:101E3000FF90EF9008954F925F926F927F928F92F2
:101E40009F92AF92BF92CF92DF92EF92FF920F9349
:101E50001F93CF93DF936C012B015A013901480185
:101E6000DC01ED91FC910284F385E02D0995E201FE
:101E7000640C751CD601ED91FC91C615D7055CF478
:101E80000088F189E02D87019401A501BE01C601FA
:101E900009952196EFCF0688F789E02DC601DF91DD
:101EA000CF911F910F91FF90EF90DF90CF90BF9057
:101EB000AF909F908F907F906F905F904F9009941C
:101EC0008F929F92AF92BF92CF92DF92EF92FF924A
:101ED0000F931F93CF93DF93EC015B014A016901DC
:101EE000E881F9810284F385E02D099595012C0D97
:101EF0003D1D21503109E881F9810488F589E02DE3
:101F000078018401A401B501CE010995E881F98128
:101F10000688F789E02DCE01DF91CF911F910F91B7
:101F2000FF90EF90DF90CF90BF90AF909F908F90F9
:101F300009948F929F92AF92BF92CF92DF92EF92CD
:101F4000FF920F931F93CF93DF93EC015B014A0144
:101F500069017801E881F9810284F385E02D099512
:101F6000C80CD91C860101501109E881F981048847
:101F7000F589E02D9501A401B501CE010995E8810F
:101F8000F9810688F789E02DCE01DF91CF911F916D
:101F90000F91FF90EF90DF90CF90BF90AF909F9008
:101FA0008F900994EF92FF920F931F93DC01ED91B4
:101FB000FC9100A0F1A1E02D09951F910F91FF90D8
:101FC000EF9008950F931F93DC01ED91FC91068C27
:101FD000F78DE02D09951F910F9108950F931F9391
:101FE000DC01ED91FC91048CF58DE02D09951F919C
:101FF0000F910895DC01ED91FC910084F185E02DB5
:1020000009943F924F925F926F927F928F929F922C
:10201000AF92BF92CF92DF92EF92FF920F931F93F6
:10202000CF93DF935C017B014A016901390187E0AD
:10203000680E711C93E0759467949A95E1F72B01F3
:10204000400E511E10E000E0312CD0E0C0E0CE0187
:1020500087709927330C892B59F4FE0183E0F5959D
:10206000E7958A95E1F7E00FF11FE80DF91D34902F
:1020700037FE0AC021E030E0A701B5016C0F7D1FDB
:1020800081E593E00E94FA0F2196CC16DD06F9F661
:102090008FEFE81AF80A060D171DE414F504A9F6E7
:1020A000DF91CF911F910F91FF90EF90DF90CF9034
:1020B000BF90AF909F908F907F906F905F904F9068
:1020C0003F9008952F923F924F925F926F927F922E
:1020D0008F929F92AF92BF92CF92DF92EF92FF9238
:1020E0000F931F93CF93DF9300D000D000D0CDB7D4
:1020F000DEB73C016A013E832D83FC82EB825801EE
:10210000A41AB50AB7FE03C0B194A194B1088D809A
:102110009E80861A970A97FE03C091948194910835
:102120008A149B045CF0902F812F0D811E819D836A
:102130008E839C2D8D2D6B01692F782F0C151D051D
:102140005CF09D818E817E836D83692F782F902F27
:10215000812F8601C92ED82E1601201A310A2B0193
:102160002D813E81421A530A57FE03C05194419477
:102170005108710137FE03C03FEFE31AF30AF594EB
:10218000E7948D819E81861797075CF5A1E0B0E00A
:10219000BA83A983C016D1064CF1D301ED91FC910D
:1021A0000484F585E02D2B813C81A8016D817E8121
:1021B0008A149B041CF04D815E81B801C30109950E
:1021C000E418F508F7FE0AC02D813E8189819A81C5
:1021D000280F391F3E832D83E20CF31C0F5F1F4F26
:1021E000D9CF2FEF3FEF3A832983D4CF26960FB66E
:1021F000F894DEBF0FBECDBFDF91CF911F910F913D
:10220000FF90EF90DF90CF90BF90AF909F908F9016
:102210007F906F905F904F903F902F90089508951A
:1022200090E080E00895CF93CFB7F8948091E201D9
:10223000811127C0EBEDF5E08491EDEBF5E0949191
:10224000E82FF0E0EE0FFF1FEE57FA4FA591B49183
:10225000EC91E92321F461E08AE00E94EE0661E05E
:102260008AE00E941C078CB580618CBD8CB58064AF
:102270008CBD61E08DE00E941C0761E08BE00E9454
:102280001C078091E2018F5F8093E201CFBFCF9165
:102290000895CF93DF938F3FF9F0282F30E0F901B5
:1022A000E457FA4F8491F901ED54FA4FD491F901B2
:1022B000EF52FA4FC491CC2379F081110E94C506E8
:1022C000EC2FF0E0EE0FFF1FE859FF4FA591B491FE
:1022D000EC91ED2381E009F480E0DF91CF91089546
:1022E0008F3F11F00C94EE0608951F93CF93DF9368
:1022F000FC012589222361F0142FEC0186890E94BC
:102300007011612F8F89DF91CF911F910C94701103
:10231000DF91CF911F91089540E061E0FC0180853D
:1023200091850E9475118FEF9FEF089508958EBDDE
:1023300000000DB407FEFDCF8EB50895EF92FF9219
:102340000F931F93CF93DF937C01C62F80916E0371
:1023500090916F03009709F459C02091720331E006
:102360003093A6022093A5021092A4021092A30219
:10237000DC01ED91FC910190F081E02D60E0099588
:102380008701EE24E394F12CD1E0C15080916E03DB
:1023900090916F03CF3F91F1B0E2EB16F104D8F0CA
:1023A0000E94BD0A80916E0390916F032091720389
:1023B000D093A6022093A5021092A4021092A30229
:1023C000DC01ED91FC910190F081E02D60E0099538
:1023D000EE24E394F12C80916E0390916F03F80149
:1023E0006491DC01ED91FC910190F081E02D099563
:1023F000BFEFEB1AFB0A0F5F1F4FC7CFDF91CF91E3
:102400001F910F91FF90EF900C94BD0AE0917E0315
:10241000F0917F039081809184038095892380834C
:102420008701C15008F438C0F801849120916C03F1
:1024300030916D03232B29F00E9497110F5F1F4FDE
:10244000F0CF28E030E040E8E0917A03F0917B03A0
:1024500090918203582F5423D9F05081952B90836B
:10246000E0917C03F0917D03908150918303952B43
:102470009083E0917C03F0917D03508190918303E0
:10248000909595239083469521503109E9F6D6CF52
:10249000508190959523E3CFDF91CF911F910F91BC
:1024A000FF90EF9008951F93CF93DF93EC018D8DF4
:1024B0009E8D009721F1162F29A131E03093A602BD
:1024C0002093A5021092A4021092A302DC01ED91C8
:1024D000FC910190F081E02D60E009958D8D9E8D3D
:1024E000DC01ED91FC910190F081E02D612F0995C7
:1024F0008D8D9E8DDF91CF911F910C94BD0AADA55E
:10250000BEA59C918BA9809589238C938B8D9C8DE6
:10251000892B31F0862FDF91CF911F910C94971169
:1025200028E030E080E8A9A5BAA599A9462F48235C
:10253000C1F04C91942B9C93ABA5BCA59C914AA94E
:10254000942B9C93ABA5BCA54C919AA990959423F0
:102550009C9386952150310931F7DF91CF911F91DE
:1025600008954C9190959423E6CF8CBD9DBD089520
:102570002F923F924F925F926F927F928F929F9293
:10258000AF92BF92CF92DF92EF92FF920F931F9381
:10259000CF93DF935C01D62FD72E342E222EDC0171
:1025A0001896ED91FC919188808860E083850E9467
:1025B00070110E94A4072B013C01D5011896ED91E2
:1025C000FC9186850E944911C82F8823B1F00E9492
:1025D000A40764197509860997096838734181054C
:1025E000910558F3D5011896ED91FC9161E0838532
:1025F0000E9470118FE39DEF81C0C4010E94B5124B
:102600007D2E8D2E9D2CF40181914F010E949711FA
:10261000882D87198315B8F3222009F43FC078016B
:10262000C00ED12ED11CCE14DF0451F0D7018D91F4
:102630007D010E949711982F9E70963011F5C6E08B
:10264000D5011896ED91FC9161E083850E9470118F
:102650000E94A4076B017C01D5011896ED91FC91B5
:1026600086850E9449118823B1F10E94A4076C1944
:102670007D098E099F09683873418105910560F3D2
:10268000B9CF983011F4C8E0DBCF9A3011F4CAE02A
:10269000D7CF81508E3F38F2CFEFD2CF80E00E946B
:1026A0009711982F9E70963051F2983061F39A30BE
:1026B00071F381508E3F80F78701CE0CDF2CD11C47
:1026C0000C151D0509F4BCCF80E00E949711F8019C
:1026D00081938F01F5CF8EE39DEFC83079F030F410
:1026E000C63009F487CF90E080E008C08DE39DEF0D
:1026F000CA3021F08EEF9FEFCF3FA9F7DF91CF9146
:102700001F910F91FF90EF90DF90CF90BF90AF900F
:102710009F908F907F906F905F904F903F902F9001
:102720000895CF92EF92FF920F931F93CF93DF9371
:1027300000D01F92CDB7DEB72DE129837A836B835A
:10274000CC24C3947A0110E000E020E043E0BE0115
:102750006F5F7F4F0E94B8120F900F900F90DF9124
:10276000CF911F910F91FF90EF90CF900895CF924E
:10277000EF92FF920F931F93CF93DF931F92CDB7EA
:10278000DEB76983C22EF12CE12C8A0121E041E001
:10279000BE016F5F7F4F0E94B8120F90DF91CF9103
:1027A0001F910F91FF90EF90CF900895AF92CF922D
:1027B000EF920F93CF93DF93CDB7DEB729970FB684
:1027C000F894DEBF0FBECDBF79836A8335E03B83CB
:1027D0002C830D83CE82AF824887E98629E0AE0143
:1027E0004F5F5F4F6CE80E94B71329960FB6F894BD
:1027F000DEBF0FBECDBFDF91CF910F91EF90CF9095
:10280000AF900895FF920F931F93CF93DF9300D063
:1028100000D0CDB7DEB7F82E062F142F8091A70376
:10282000882309F440C020919C0361E070E080E0BF
:1028300090E004C0660F771F881F991F2A95D2F772
:102840000E9403282091A3033091A4034091A50383
:102850005091A6030E94A92920E030E040E851E40D
:102860000E944A2A87FD1CC081E080939E03F98262
:102870000A831B8380919E038C8324E0AE014F5F0B
:102880005F4F6BE881E993E00E94B7130F900F90C0
:102890000F900F90DF91CF911F910F91FF900895AE
:1028A00010929E03E4CF20939E03E1CFCF93DF935A
:1028B00000D0CDB7DEB723E029832FEF2A8322E0B3
:1028C000AE014F5F5F4F62E00E94B7130F900F9011
:1028D000DF91CF910895CF93DF93CDB7DEB72897DF
:1028E0000FB6F894DEBF0FBECDBF79836A831B821B
:1028F0004C831D821E821F82188628E0AE014F5F26
:102900005F4F68E00E94B71328960FB6F894DEBFB9
:102910000FBECDBFDF91CF910895CF93DF9300D04D
:1029200000D0CDB7DEB779836A835B834C8324E024
:10293000AE014F5F5F4F66E80E94B7130F900F9094
:102940000F900F90DF91CF910895AF92BF92DF92D9
:10295000EF92FF920F931F93CF93DF9300D01F92BC
:10296000CDB7DEB78C018FEF89838A838B8323E019
:10297000AE014F5F5F4F62E8C8010E94B7136AE083
:1029800070E080E090E00E947207F12CE12CD12CE5
:102990001982AE014F5F5F4F69E178E0C8010E9484
:1029A0009113898180FBAA24A0F8B12CC5010E2CBB
:1029B00001C0880F0A94EAF7D82A8FEFE81AF80ABC
:1029C000A8E0EA16F10421F7D801ED91FC9102800C
:1029D000F381E02DC80109958D2D0F900F900F9078
:1029E000DF91CF911F910F91FF90EF90DF90BF90FB
:1029F000AF9008950F931F93CF93DF931F92CDB79E
:102A0000DEB78C0140E060E0FC01808591850E948A
:102A10007511198221E0AE014F5F5F4F60E8C80178
:102A20000E94B7130F90DF91CF911F910F910895DE
:102A3000CF92DF92EF92FF92CF93DF93E0919903D1
:102A4000F0919A0385858F3F19F061E00E941C0781
:102A5000E0919903F0919A0360E085850E947011DE
:102A600061E070E080E090E00E947207E0919903DD
:102A7000F0919A0361E085850E9470110E94A4077D
:102A80006B017C0181E993E00E94FA14EC01892B2F
:102A900091F00E94A4076C197D098E099F09683B7B
:102AA0007B408105910538F46AE070E080E090E0B9
:102AB0000E947207E7CFCE01DF91CF91FF90EF9098
:102AC000DF90CF900895CF92DF92EF92FF920F9315
:102AD0001F93CF93DF931F92CDB7DEB78C016A01AE
:102AE0007B0141E060E0FC01808591850E947511C9
:102AF000C114D104E104F10499F4198221E0AE017A
:102B00004F5F5F4F61EDC8010E94B7130F90DF91D7
:102B1000CF911F910F91FF90EF90DF90CF9008958C
:102B2000B701A601C8010E948D14009731F3EECFC2
:102B3000CF92EF92FF920F931F93CF93DF931F9249
:102B4000CDB7DEB76983C22E7A0110E000E020E045
:102B500041E0BE016F5F7F4F0E94B8120F90DF917E
:102B6000CF911F910F91FF90EF90CF900895CF9349
:102B7000DF931F92CDB7DEB72FEF298321E0AE019F
:102B80004F5F5F4F61E10E94981589810F90DF913F
:102B9000CF9108958F929F92AF92BF92DF92EF9262
:102BA000FF920F931F93CF93DF93EC017B010E9461
:102BB000B71533E0EE0CFF1C3A95E1F7813009F0D0
:102BC00087C0DB8460E177E280E090E00D2C04C0F8
:102BD000660F771F881F991F0A94D2F70E94032857
:102BE0004B015C0120E030E040E251E46A897B89DE
:102BF0008C899D890E9464289B01AC01C501B401A8
:102C00000E94A9290E941B2A8B019C018BEF8D0D2C
:102C100098E0E1E1823010F490E0E9E16D2D0038B8
:102C20007EE317072105310510F06EE36D0D660F89
:102C3000660F8F8581114AC084E14E8570E1479F00
:102C4000A00111244E0D5F1D74E0D79E401951095B
:102C50001124490F511D70E0840F952F911D97FF8E
:102C600002C090E080E0AB0141505109840F951FF4
:102C70000E94542A8C8590E00496689FD001699F39
:102C8000B00D789FB00D1124888999890896A80FF6
:102C9000B91FAA0FBB1FAA0FBB1FAE0FB11DA90101
:102CA00098010E94222922E096958795779567954D
:102CB0002A95D1F7DF91CF911F910F91FF90EF905F
:102CC000DF90BF90AF909F908F90089580E0B5CF38
:102CD0002F89388D498D5A8DD7010E9422290E9453
:102CE000032820E030E040E85AE30E9464280E9474
:102CF0001B2AE0CFFF920F931F93CF93DF93CDB7A3
:102D0000DEB728970FB6F894DEBF0FBECDBF8C019B
:102D1000F62E0E94B715811143C082E0F816D1F15A
:102D20008F1548F0FF2079F0E1E088E0FE1699F178
:102D300086E99FEF23C0F3E0FF1681F184E0F812EB
:102D4000F7CF8BE028C0F80110A2F801838D948D95
:102D5000258D378D40A15789608D718D79836A8368
:102D60005B834C833D832E839F83888728E0AE015D
:102D70004F5F5F4F6BE8C8010E94B71328960FB6EC
:102D8000F894DEBF0FBECDBFDF91CF911F910F91A1
:102D9000FF90089589E0F80180A3D7CF8AE0FBCFA8
:102DA0008CEE9FEFEBCFCF92DF92EF92FF920F93DB
:102DB0001F93CF93DF93CDB7DEB728970FB6F89464
:102DC000DEBF0FBECDBF8C016A017B010E94B7152B
:102DD000811153C020E030E0A901C701B6010E9473
:102DE0004A2A87FD4DC020E030E048E453E4C701A3
:102DF000B6010E94FE2718160CF442C020E030E015
:102E00004AE754E4C701B6010E94642820E030E09C
:102E100040E05CE40E94642820E034E244EF5BE49C
:102E20000E94A9290E941B2AF801638F748F858F45
:102E3000968F978D20A13789408D518D59834A8374
:102E40003B832C839D838E837F83688728E0AE013C
:102E50004F5F5F4F6BE8C8010E94B71328960FB60B
:102E6000F894DEBF0FBECDBFDF91CF911F910F91C0
:102E7000FF90EF90DF90CF9008958CEE9FEFEECF14
:102E80008AE99FEFEBCF4F925F926F927F928F9282
:102E90009F92AF92BF92CF92DF92EF92FF920F93E9
:102EA0001F93CF93DF93EC017B018A01D22EE8813F
:102EB000F9810280F381E02D0995009709F049C05E
:102EC0000F3F110511F008F0AAC0CE010E94B715FE
:102ED000813009F04FC0B801CE010E94CA159B0194
:102EE000AC01A3E0B0E00E9422294B015C01B69442
:102EF000A79497948794E881F9810680F781E02D63
:102F00002D2DA801B701CE010995009711F50E945A
:102F10004D076B017C01E885F98584850E94491184
:102F2000811137C00E944D076C197D098E099F09D8
:102F300086169706A806B90670F7CE010E945614A9
:102F4000E881F9810280F381E02DCE0109958BEFB4
:102F50009FEFDF91CF911F910F91FF90EF90DF9046
:102F6000CF90BF90AF909F908F907F906F905F9029
:102F70004F900895811156C0B801CE010E94CA1524
:102F80009B01AC01A5E0B0E00E9422294B015C014D
:102F9000B2CF0E944D074B015C01B80190E080E088
:102FA0000E94032820E030E040E051E40E946428C1
:102FB0002B013C01C501B4016C197D098E099F09E3
:102FC0000E94032820E034E244E759E40E94A92942
:102FD0009B01AC01C301B2010E94A9296CA77DA786
:102FE0008EA79FA7CE010E945614009709F0B1CF7B
:102FF000E881F9810280F381E02DCE01DF91CF914C
:103000001F910F91FF90EF90DF90CF90BF90AF9006
:103010009F908F907F906F905F904F9009948CEF6E
:103020009FEF97CF8FEF9FEF94CFCF93DF9300D099
:10303000CDB7DEB719821A8222E0AE014F5F5F4F33
:1030400063E10E949815898190E00F900F90DF91C5
:10305000CF910895CF92EF92FF920F931F93CF934A
:10306000DF9300D01F92CDB7DEB73DE039837A837E
:103070006B83C22EF12CE12C8A0121E043E0BE01DA
:103080006F5F7F4F0E94B8120F900F900F90DF91EB
:10309000CF911F910F91FF90EF90CF900895BF9225
:1030A000CF92DF92EF92FF920F931F93CF93DF9314
:1030B00000D000D000D0CDB7DEB77C01C62EB72E31
:1030C000142FD22E1982AE014F5F5F4F66E377E077
:1030D0000E9491130097E1F489818B7F898321E01D
:1030E000AE014F5F5F4F66E377E0C7010E942A1889
:1030F000009771F4B982CA820B83DC821D831E8221
:1031000026E0AE014F5F5F4F6CE8C7010E94B71326
:1031100026960FB6F894DEBF0FBECDBFDF91CF91DC
:103120001F910F91FF90EF90DF90CF90BF90089587
:103130000F931F93CF93DF9300D0CDB7DEB7FC0181
:103140002785213049F08CEE9FEF0F900F90DF9193
:10315000CF911F910F9108958C010E94B715813076
:1031600091F71A8221E0AE014E5F5F4F60E279E095
:10317000C8010E942A18009741F71982AE014F5FDB
:103180005F4F64E479E0C8010E9491130097E9F66B
:1031900089818260898321E0AE014F5F5F4F64E4E3
:1031A00079E0C8010E942A18D0CF2F923F924F9207
:1031B0005F926F927F928F929F92AF92BF92CF92C7
:1031C000DF92EF92FF920F931F93CF93DF9300D084
:1031D0001F92CDB7DEB77C011B016A01DC01ED91C6
:1031E000FC910280F381E02D09958C01892B09F077
:1031F000B0C0C7010E94B715813009F0C1C0F70106
:10320000238561E070E080E090E004C0660F771FE6
:10321000881F991F2A95D2F70E940328D70152963A
:103220002D913D914D915C9155970E94A92920E0E7
:1032300030E048EC52E40E94642820E030E04AE7A5
:1032400054E40E9464280E941B2A4B015C0142E066
:1032500050E062E672E0C7010E946B148C01892B7A
:1032600009F077C019821A8222E0AE014F5F5F4FEA
:103270006FE8C7010E94B7138C01892B09F069C060
:10328000C7010E9456148C01D7011F968C91813082
:1032900079F4C7010E94B715813051F4F7016089B4
:1032A0007189078524A94685C7010E944F188C01A2
:1032B0000115110509F04DC0C501B4010E94032894
:1032C00020E030E04AE751E40E94A9290E941B2A2D
:1032D000162F072F782E40E061E0D70118968D91C8
:1032E0009C910E94751179820A831B8323E0AE01B1
:1032F0004F5F5F4F62E8C7010E94B7138C01892BB3
:1033000041F50E944D072B013C01D7011896ED9124
:10331000FC9184850E944911811168C00E944D076B
:10332000641975098609970986169706A806B906CD
:1033300060F7C7010E949818C7010E945614D70170
:10334000ED91FC910280F381E02DC70109950AEF10
:103350001FEFC8010F900F900F90DF91CF911F9139
:103360000F91FF90EF90DF90CF90BF90AF909F9024
:103370008F907F906F905F904F903F902F90089527
:103380000FEF1FEF8111E5CF6FEF70E0C114D10493
:1033900009F0B60190E080E00E94032820E030E0D0
:1033A00040E051E40E9464284B015C01F701678909
:1033B000708D818D928D0E9403289B01AC0160E08D
:1033C00074E284E79EE40E94A9299B01AC01C50137
:1033D000B4010E94A92920E034E244E759E40E94A4
:1033E000642820E030E040EA50E42BCFF7018785E5
:1033F000813061F0D701ED91FC910084F185E02DE1
:10340000A601B101C70109958C01A3CFC7010E9494
:10341000B715813079F7C7010E9498188C01892B64
:1034200049F397CF8F929F92AF92CF92EF920F93E3
:103430001F93CF93DF9300D0CDB7DEB74C01162F8B
:103440000E94B715811140C011111AC0F40114A2D5
:1034500066A177A1AA24AA94C5A0E12C03A122A168
:1034600041A1C4010E94D6130F900F90DF91CF911C
:103470001F910F91EF90CF90AF909F908F900895F4
:1034800081E0F40184A3AE014F5F5F4F68EB76E00B
:10349000C4010E949113009739F789818160898363
:1034A0001A8222E0AE014F5F5F4F68EB76E0C40105
:1034B0000E942A180097C1F6F40166A177A1AA24F8
:1034C000AA94C5A0E4A0CACF8CEE9FEFCDCF8F9277
:1034D0009F92AF92BF92CF92DF92EF92FF920F93A3
:1034E0001F93CF93DF9300D0CDB7DEB75C017B0194
:1034F0006A01DC01ED91FC910280F381E02D0995D8
:103500000097E9F519821A8222E0AE014F5F5F4F02
:1035100062E1C5010E94981589819A8198278927BF
:10352000982780769927912C812C892B21F089EF7F
:10353000882E99249A94BFEFCB16D10451F4D5016B
:10354000ED91FC910488F589E02D61E0C5010995B4
:103550006C018EE189831A8210E000E020E042E0F5
:10356000BE016F5F7F4FC5010E94B812009739F40A
:10357000C5010E9456148114910409F0C4010F90F2
:103580000F90DF91CF911F910F91FF90EF90DF90FF
:10359000CF90BF90AF909F908F9008954F925F9281
:1035A0006F927F928F929F92AF92CF92EF92FF9203
:1035B0000F931F93CF93DF9300D01F92CDB7DEB749
:1035C0004F3F510511F008F0ECC0DC0193962C91AF
:1035D000222321F04F3F510509F4E3C03A012B01AA
:1035E0004C010E94B715813009F0B3C0F401608925
:1035F00071890785262D4685C4010E944F188C01CC
:10360000892B09F093C041E050E061E072E0C40111
:103610000E946B148C01892B09F088C019821A82D0
:1036200022E0AE014F5F5F4F6FE8C4010E94B71305
:103630008C01892B09F07AC08EE089831A82C62C0E
:10364000F12CE12C820121E042E0BE016F5F7F4F4F
:10365000C4010E94B8128C01892B09F067C0C40113
:103660000E9456148C01892B09F060C01982AE01AA
:103670004F5F5F4F69E878E0C4010E9491138C01AD
:10368000892B09F053C0C4010E94B71519818130FC
:1036900001F520E030E04AEF53E4F40162897389D8
:1036A000848995890E943C292B013C0120E030E06F
:1036B000A9010E944A2A18160CF067C02FE632E1D1
:1036C00043E85AE3C301B2010E94FE2718160CF02A
:1036D00066C01460198321E0AE014F5F5F4F69E857
:1036E00078E0C4010E942A188C01892BF9F441E08A
:1036F00060E0D40118968D919C910E9475111982F9
:103700001A821B8223E0AE014F5F5F4F63E8C40162
:103710000E94B7138C01892B49F4D4011896ED91BE
:10372000FC9186850E9449118111F7CFC8010F9045
:103730000F900F90DF91CF911F910F91FF90EF901D
:10374000CF90AF909F908F907F906F905F904F90B1
:1037500008950FEF1FEF8111E9CFD40196966D9177
:103760007C919797A62C9596CC9095979496EC90F3
:10377000949793960C91939792962C9192979196F9
:103780004C91C4010E94D6133ACF2FE632E143E8B0
:103790005AEBC301B2010E944A2A87FD9ACF1B7FD0
:1037A00099CF0CEF1FEFC2CF1F93CF93DF93EC01A4
:1037B000162F8D8D9E8D892BB1F12DA93EA94FA974
:1037C00058AD60E074E284EF90E00E94682A2051D6
:1037D0003109410951095695479537952795209309
:1037E000B80066EA111167EACE010E9453128D8D6E
:1037F0009E8D892B41F129AD3AAD4BAD5CAD60E0BA
:1038000074E284EF90E00E94682A20513109410956
:10381000510956954795379527952093B800DF9124
:10382000CF911F9108958B8D9C8D892B21F08EADAA
:103830009FAD0E94B512EFA5F8A990818CA9809543
:1038400089238083CECFEFA5F8A980819CA9892BFD
:103850008083E5CF2091570330915803C901079623
:1038600097FD079623E0959587952A95E1F7209196
:10387000550330915603829FA001839F500D929F64
:10388000500D112470E060E08091700390917103FD
:103890000C94CE2BFB0101900020E9F73197AF018A
:1038A000461B570BDC01ED91FC910280F381E02D6A
:1038B0000994CF93DF930E948A06EC0167E771E0D9
:1038C00087EA92E00E944A1C8C0F9D1FDF91CF91E6
:1038D00008958F929F92AF92BF920F931F93CF93B1
:1038E000DF93CDB7DEB7A1970FB6F894DEBF0FBE5A
:1038F000CDBF19A2423008F44AE08E010F5D1F4F80
:10390000842E912CB12CA12CA50194010E94682A2F
:10391000E62FB901CA01EA3004F5E05DD801EE9363
:103920008D01232B242B252B79F790E080E0109735
:1039300029F0BD0187EA92E00E944A1CA1960FB6C9
:10394000F894DEBF0FBECDBFDF91CF911F910F91D5
:10395000BF90AF909F908F900895E95CDFCF0F9359
:103960001F93CF93DF93EC010E944A1C8C0167E701
:1039700071E0CE010E944A1C800F911FDF91CF9110
:103980001F910F9108950E94C92B1F920F920FB69D
:103990000F9211242F933F934F935F936F937F93D5
:1039A0008F939F93AF93BF93EF93FF938091960272
:1039B00090919702A0919802B0919902892B8A2B3D
:1039C0008B2BC1F190919502809100008927809303
:1039D00000008091960290919702A0919802B09178
:1039E0009902181619061A061B069CF48091960275
:1039F00090919702A0919802B09199020197A10924
:103A0000B1098093960290939702A0939802B09385
:103A10009902FF91EF91BF91AF919F918F917F910B
:103A20006F915F914F913F912F910F900FBE0F902B
:103A30001F90189580910401E0EAF5E0E4919FEF72
:103A400090930401E13051F030F0E23069F060E031
:103A50000E94EE06DECF10926E00F9CF90916F00BB
:103A60009D7F90936F00F3CF909170009D7F909316
:103A7000700091E09093B0009091B100987F9460B5
:103A80009093B1001092B300E2CF1F920F920FB645
:103A90000F9211242F933F934F935F936F937F93D4
:103AA0008F939F93AF93BF93EF93FF9387EA92E037
:103AB0000E941B06FF91EF91BF91AF919F918F9153
:103AC0007F916F915F914F913F912F910F900FBE1A
:103AD0000F901F9018951F920F920FB60F921124FE
:103AE0002F938F939F93EF93FF93E091B702F09101
:103AF000B8028081E091BD02F091BE0282FD1BC040
:103B000090818091C0028F5F8F732091C1028217D4
:103B100041F0E091C002F0E0E955FD4F958F8093B0
:103B2000C002FF91EF919F918F912F910F900FBE47
:103B30000F901F9018958081F4CF1F920F920FB6AF
:103B40000F9211242F933F938F939F93AF93BF9323
:103B500080918D0290918E02A0918F02B09190027F
:103B600030918C0223E0230F2D3758F50196A11DCB
:103B7000B11D20938C0280938D0290938E02A093AE
:103B80008F02B09390028091910290919202A09145
:103B90009302B09194020196A11DB11D80939102F0
:103BA00090939202A0939302B0939402BF91AF912D
:103BB0009F918F913F912F910F900FBE0F901F906B
:103BC000189526E8230F0296A11DB11DD2CF1F9292
:103BD0000F920FB60F9211242F933F934F935F9341
:103BE0006F937F938F939F93AF93BF93EF93FF93C5
:103BF000E0910201F09103010995FF91EF91BF91CE
:103C0000AF919F918F917F916F915F914F913F9174
:103C10002F910F900FBE0F901F9018951F920F922B
:103C20000FB60F9211242F933F934F935F936F938F
:103C30007F938F939F93AF93BF93EF93FF93E09105
:103C40000001F09101010995FF91EF91BF91AF91B2
:103C50009F918F917F916F915F914F913F912F91A4
:103C60000F900FBE0F901F9018951F920F920FB6D6
:103C70000F9211242F933F934F935F936F937F93F2
:103C80008F939F93AF93BF93EF93FF938091B9006E
:103C9000887F803609F44AC0F0F5883209F4A7C05D
:103CA00018F5803109F49BC0B8F4882309F4F9C0F1
:103CB000883009F494C0FF91EF91BF91AF919F912B
:103CC0008F917F916F915F914F913F912F910F90C5
:103CD0000FBE0F901F901895883109F488C080326C
:103CE00051F78093680214C0803409F49DC040F4F9
:103CF0008033B9F38833F9F68093680285ECB0C05D
:103D0000803509F485C0883509F496C0883499F661
:103D10000E94070AD0CF883909F48CC038F588375B
:103D200029F050F4883611F0803729F683E080932B
:103D3000A0021092670257C0883809F47BC080390E
:103D400019F0803809F0B7CF80916702803208F00F
:103D500071C0E091670281E08E0F809367028091CD
:103D6000BB00F0E0E95BFD4F80833DC0803B39F054
:103D7000E0F4803A09F479C0883A09F09CCF84E0F5
:103D80008093A0021092460210924502E0919C029C
:103D9000F0919D0209958091450281110FC081E04B
:103DA000809345021092250209C0803C09F4A6CFF9
:103DB000883C09F4A3CF883B09F07DCFE09146020F
:103DC00081E08E0F80934602F0E0EB5DFD4F808135
:103DD0008093BB00909146028091450229C080915A
:103DE0008B028093BB0085EC8093BC0064CF9091E4
:103DF0008A0280918902981758F5E0918A0281E041
:103E00008E0F80938A02F0E0E759FD4F8081E9CF61
:103E1000E0918A0281E08E0F80938A028091BB003C
:103E2000F0E0E759FD4F808390918A0280918902EA
:103E30009817C8F285E8D8CFE0918A0281E08E0F0A
:103E400080938A028091BB00F0E0E759FD4F8083A8
:103E500080919F0281115CCF81E080939E0284EA71
:103E60008093BC001092A00226CF85EC8093BC000A
:103E70001092A00280916702803230F4E0916702D4
:103E8000F0E0E95BFD4F10826091670270E0E09125
:103E90009A02F0919B0287E492E0099510926702E2
:103EA0000ACF1092680234CF1F920F920FB60F9272
:103EB00011240F900FBE0F901F901895CF93DF9392
:103EC000E7EAF2E01382128288EE93E0A0E0B0E02D
:103ED00084839583A683B7832FE031E031832083E9
:103EE00025EC30E03587248724EC30E037872687BF
:103EF00020EC30E0318B208B21EC30E0338B228BB7
:103F000022EC30E0358B248B26EC30E0378B268B8F
:103F1000118E128E138E148EC5E4D3E01B821A828A
:103F20008C839D83AE83BF8381E291E099838883F4
:103F30008CE190E00E94A42ADC0140E855E260E0B8
:103F400070E012964D935D936D937C931597169642
:103F50001D921D921C9218978DE016968C931697C1
:103F60008AE017968C93179719961C92199780E8F8
:103F70001A968C931A9784E01B968C931B9785E076
:103F80001C968C931C9783E01D968C931D9782E062
:103F90001E968C931E978FEF1F968C931F9791E51B
:103FA00050969C93509791E051969C9351975596BB
:103FB0001C92559756968C93569757968C93579775
:103FC00048E95AE360E070E058964D935D936D9335
:103FD0007C935B9724E433E054963C932E93539761
:103FE00052969C93529711961C921E92E1E9F3E02F
:103FF00040E054E264E77FE3428353836483758344
:104000002FEF30E0378326831286138614861586B9
:1040100016861786118A108A128A138A148A158ABC
:10402000968B178A108E118E128E138E148E158E0B
:10403000168E178E10A211A212A213A214A215A2FC
:1040400017A216A210A611A612A613A614A615A6AC
:1040500016A617A610AA11AA12AA13AA15AA14AA7C
:10406000B187A0872FE531E031832083E1E5F3E0DC
:104070001382128240E850E05583448320E430E00C
:10408000378326835187408733872287168A158690
:10409000148617861686958B948B2FEF3FEF338B04
:1040A000228B318B208B978B108E128E118E23E3F7
:1040B00031E031832083148E138ED68FC58F10A2EA
:1040C000178E84A385A386A387A380A780E89AE19F
:1040D000A6E0B0E085AB96ABA7ABB0AF80EA96E8C0
:1040E000A1E0B0E081AF92AFA3AFB4AF80E586AFFF
:1040F00017AEDF91CF910895CF93DF93CDB7DEB7A1
:1041000028970FB6F894DEBF0FBECDBF789484B564
:10411000826084BD84B5816084BD85B5826085BDC3
:1041200085B5816085BD80916E00816080936E0051
:104130001092810080918100826080938100809143
:1041400081008160809381008091800081608093F4
:1041500080008091B10084608093B1008091B000B4
:1041600081608093B00080917A00846080937A00AF
:1041700080917A00826080937A0080917A008160D9
:1041800080937A0080917A00806880937A00109200
:10419000C100E091B702F091B80282E08083E09123
:1041A000B302F091B4021082E091B502F091B60230
:1041B0008FEC80831092BF02E091BB02F091BC02B1
:1041C00086E08083E091B902F091BA02808180613B
:1041D0008083E091B902F091BA0280818860808387
:1041E000E091B902F091BA02808180688083E09109
:1041F000B902F091BA0280818F7D80836AE771E015
:1042000087EA92E00E944A1C0091990310919A0358
:10421000D8011B968C918F3F19F061E00E941C071A
:1042200061E0F80183850E947011D80152968C914B
:1042300081110E941311E0919903F0919A038485F2
:104240008F3F19F060E00E941C07E0919903F09104
:104250009A0386858F3F19F060E00E941C0780E07A
:1042600090E0AAEFB2E48093A3039093A403A093F9
:10427000A503B093A60389E080939C0384E0809318
:104280009B0313E010939D0310929E0301E00093A3
:104290009F0388E090E09093A2038093A103109283
:1042A000C1031092C2031092C3031092C403109270
:1042B000A0038FEF90E09093C6038093C5030E9404
:1042C00018156C01892B09F0B4C081E993E00E94B4
:1042D000FA146C01892B09F0ACC019821A8222E011
:1042E000AE014F5F5F4F6FE881E993E00E94B71323
:1042F0006C01892B09F09DC0098321E0AE014F5F5D
:104300005F4F6AE881E993E00E94B7136C01892B43
:1043100009F08FC080E2898321E0AE014F5F5F4FDB
:1043200063E981E993E00E94B7136C01892B09F0DE
:1043300080C0198380919C03835F8A838AE08B838A
:104340001C821D821E821F8227E0AE014F5F5F4FDD
:1043500068E881E993E00E94B7136C01892B09F0AA
:1043600068C081E993E00E9456146C0150E040E07F
:1043700070E060E081E993E00E946B14C82AD92ABA
:10438000C114D10409F055C08FE7898321E0AE0143
:104390004F5F5F4F69E881E993E00E94B7136C01BA
:1043A000892B09F046C065E070E080E090E00E9453
:1043B0007207E0919903F0919A0386850E94491152
:1043C0008111F7CF81E993E00E94FA1419821A82D1
:1043D00022E0AE014F5F5F4F67E181E993E00E9409
:1043E000981519821A8281E08B8380E48C8388E897
:1043F00093E1A0E0B0E08093C1039093C203A09347
:10440000C303B093C40324E0AE014F5F5F4F67E97D
:1044100081E993E00E94B7136C01892B51F481E983
:1044200093E00E94B715813039F11CEEC12EDD24D6
:10443000DA9485E89AE00E948A060D2C000CEE08BA
:10444000FF084AE0C701B601F7FE0DC06DE287EA3A
:1044500092E00E943D0666277727CB016C197D0903
:104460008E099F094AE00E94691C67E771E087EAAC
:1044700092E00E944A1CFFCF89E080939C03209128
:104480009E0340919D0360919B030E9402146C0166
:10449000892B79F681E993E00E94B715813029F6DE
:1044A00084E080939B0380E090E0AAEFB2E48093E5
:1044B000A3039093A403A093A503B093A603209114
:1044C0009E0340919D0364E080919C030E9402142E
:1044D0006C01892B09F0ADCF81E993E00E94B715FB
:1044E000813009F0A2CF83E080939D0320919E0349
:1044F00043E060919B0380919C030E9402146C0135
:10450000892B09F096CF81E993E00E94B71581309D
:1045100009F08BCF84E1898384E28A8322E0AE01B3
:104520004F5F5F4F60E477E081E993E00E942A18D3
:104530006C01892B09F07DCF81E993E00E94B715CA
:10454000813009F0EBC088E090E09093A203809363
:10455000A1030091A0032091C50340919F0368E04F
:1045600070E081E993E00E944F186C01892B09F0FB
:1045700060CF88E1898321E0AE014F5F5F4F67EE36
:1045800078E081E993E00E942A186C01892B09F0F8
:1045900050CF11E0198321E0AE014F5F5F4F6DE90D
:1045A00081E993E00E94B7136C01892B09F041CF98
:1045B000198321E0AE014F5F5F4F66E981E993E027
:1045C0000E94B7136C01892B09F033CF8BE68983E6
:1045D0008FE68A8322E0AE014F5F5F4F68E981E991
:1045E00093E00E94B7136C01892B09F022CF40E0C1
:1045F00050E060E27BE181E993E00E948D146C0160
:10460000892B09F016CF1886AE01485F5F4F67EE21
:1046100078E081E993E00E9491136C01892B09F005
:1046200008CF04E0098387E08A831B821C8324E08F
:10463000AE014F5F5F4F65E981E993E00E94B713D8
:104640006C01892B09F0F5CE8AE089830A8322E088
:10465000AE014F5F5F4F6EE881E993E00E94B713B0
:104660006C01892B09F0E5CE21E0AE01485F5F4F78
:1046700067EE78E081E993E00E942A186C01892BAB
:1046800009F0D7CE1982AE014F5F5F4F68ED78E039
:1046900081E993E00E9491136C01892B09F0C9CE46
:1046A00089818E61898321E0AE014F5F5F4F68EDA4
:1046B00078E081E993E00E942A186C01892B09F0C7
:1046C000B8CE83E99AE00E94591C809170039091C2
:1046D0007103892B09F43DC00E942A1C20915703C5
:1046E0003091580380915503909156032132310542
:1046F0000CF058C0B9016052710977FF02C06F5FBA
:104700007F4F759567958357910997FD019600E254
:1047100010E023E730E045EE55E057C0811107C3B4
:1047200088E090E09093B8038093B703AA24AA94FA
:10473000C090B603E090B5030091B4032091B30399
:104740004091B20368E070E081E993E00E94D613E3
:104750000CCF2091570330915803C901079697FD5C
:104760000796B3E095958795BA95E1F720915503A3
:1047700030915603FC01E29FC001E39F900DF29F30
:10478000900D11240E94A42A9093710380937003CA
:10479000892B09F0A1CF63E971E087EA92E00E94DA
:1047A000AF1CFFCFB9016054710977FF02C06F5F82
:1047B0007F4F759567958255910997FD019600E4A5
:1047C00010E022E530E045EC57E0959587950E9492
:1047D000011082E08093730380916E0390916F03C8
:1047E000892B09F4E0C18CE3809372031092A2023A
:1047F0001092A1021092A4021092A3021092A002A1
:1048000081E080939F0210929E0261E082E10E940B
:10481000EE0661E083E10E94EE068091B9008E7F92
:104820008093B9008091B9008D7F8093B90088E4AE
:104830008093B80085E48093BC008BE995E0909369
:104840009D0280939C028CE995E090939B0280935B
:104850009A028091790387FD1EC061E00E941C07C7
:1048600061E0809179030E94EE0661E070E080E0F3
:1048700090E00E94720760E0809179030E94EE064A
:104880006AE070E080E090E00E94720761E0809151
:1048900079030E94EE0680916E0390916F03892B3D
:1048A00009F40EC22091860330918703409188035A
:1048B0005091890360E074E284EF90E00E94682ADE
:1048C000205131094109510956954795379527954A
:1048D0002093B80064E08FEA95E00E949E116091F9
:1048E0005703615081E593E00E94531264E08BEA24
:1048F00095E00E949E118091730360E1813009F080
:1049000064E181E593E00E94531264E087EA95E058
:104910000E949E118FE880938E03809155039091A1
:1049200056038038910509F0E4C1809157039091B6
:1049300058038034910509F0ECC1809173038130F4
:1049400009F0D5C18FE980938E0312E16AED81E50C
:1049500093E00E945312612F81E593E00E9453126D
:1049600061E881E593E00E94531260918E0381E536
:1049700093E00E94531269ED81E593E00E94531287
:104980008091730362E2813009F061EF81E593E089
:104990000E94531266E081EA95E00E949E11809188
:1049A0006E0390916F03892B09F4B7C120918A039C
:1049B00030918B0340918C0350918D0360E074E241
:1049C00084EF90E00E94682A205131094109510981
:1049D00056954795379527952093B80063E971E080
:1049E00087EA92E00E94AF1C412C74E2572E74EFCC
:1049F000672E712CE0E02E2EE0E03E2E60ED77E099
:104A000080E090E00E9472070E942A1CF1E0F0937F
:104A10006503F093660321E030E030936403209354
:104A20006303309362032093610310925E0310923C
:104A30005D034AE050E05093600340935F036DEAEA
:104A400071E081E593E00E94AF1C10925E0310922A
:104A50005D0380E290E09093600380935F036CEBD2
:104A600071E081E593E00E94AF1C80916E0390910C
:104A70006F03892B09F45FC120918603309187036E
:104A80004091880350918903C301B2010E94682AB2
:104A90002051310941095109569547953795279578
:104AA0002093B80065E08CE99AE00E949E11609125
:104AB0005503615081E593E00E9453122091570302
:104AC00030915803C901079697FD079633E09595F5
:104AD00087953A95E1F72091550330915603829FCF
:104AE0007001839FF00C929FF00C112400917003D1
:104AF0001091710380916E0390916F03E00EF11E8F
:104B0000009709F4A7C120917203A1E0A093A60227
:104B10002093A5021092A4021092A302DC01ED9151
:104B2000FC910190F081E02D60E40995CC24C394C0
:104B3000D12C80916E0390916F03E016F10609F479
:104B400011C1B0E2CB16D104E0F00E94BD0A809101
:104B50006E0390916F0320917203E1E0E093A6024F
:104B60002093A5021092A4021092A302DC01ED9101
:104B7000FC910190F081E02D60E40995CC24C39470
:104B8000D12C80916E0390916F03F80161918F0198
:104B9000DC01ED91FC910190F081E02D0995BFEFD2
:104BA000CB1ADB0AC6CF61E0809177030E941C0715
:104BB00061E0809178030E941C0780917703082EA2
:104BC000000C990BFC01EF52FA4FE491F0E0EE0F6C
:104BD000FF1FE953FA4F2591349130937F032093BF
:104BE0007E03FC01ED54FA4FE491E093840380913D
:104BF0007803082E000C990BFC01EF52FA4FE49158
:104C0000F0E0EE0FFF1FE953FA4FA591B491B09376
:104C10008103A0938003FC01ED54FA4FE491E093EB
:104C200085038C91E82BEC9380916C0390916D033C
:104C3000892B19F00E9413110CCE61E0809175034D
:104C40000E941C0761E0809176030E941C078091FE
:104C50007503082E000C990BFC01EF52FA4FE491FA
:104C6000F0E0EE0FFF1FE953FA4F25913491309396
:104C70007B0320937A03FC01ED54FA4FE491E09317
:104C8000820380917603082E000C990BFC01EF52F1
:104C9000FA4FE491F0E0EE0FFF1FE953FA4FA591B0
:104CA000B491B0937D03A0937C03FC01ED54FA4FC3
:104CB000E491E09383038C91E095E823EC93C9CDD4
:104CC00080916C0390916D03892B31F080918F035B
:104CD000909190030E94B512E0918003F0918103BE
:104CE000908180918503809589238083F3CD8FEC1B
:104CF0002ACE8036910569F480915703909158032C
:104D0000409739F480917303813029F480E18093D6
:104D10008E0312E01BCE8FEAFACFE0918003F09170
:104D20008103808190918503892B808357CECC2489
:104D3000CA94DC2C7ECB80916C0390916D03892BFF
:104D400031F080918F03909190030E94B512E09111
:104D50008003F09181039081809185038095892360
:104D60008083A0CE0E94BD0A80916E0390916F0354
:104D7000892B09F4B3C020918A0330918B034091B1
:104D80008C0350918D03C301B2010E94682A205107
:104D90003109410951095695479537952795209333
:104DA000B80083EC9AE00E94591C20E048E050E0F3
:104DB00063EC71E081E993E00E944317892B09F0CD
:104DC0003DC08AEB9AE00E94591C86EA9AE00E9454
:104DD0008A06C090BD03D090BE03E090BF03F09060
:104DE000C003A7019601C701B6010E944F2A6CECCF
:104DF00071E081111BC046015701E894B7F82FEF0D
:104E00003FEF4FE75FE7C501B4010E944F2A8111D0
:104E10006FC02FEF3FEF4FE75FE7C501B4010E947E
:104E2000FE2718160CF064C060ED71E087EA92E08E
:104E30000E944A1C81EA9AE00E94591C2114310404
:104E400009F4DCCD0E940706882309F4D7CD0E941F
:104E50000000D4CDE0917E03F0917F03808190919A
:104E60008403892B8083E016F10609F47DCFF801D5
:104E700081918F0120916C0330916D03232B19F0E8
:104E80000E949711F0CF28E030E040E8E0917A03EB
:104E9000F0917B0390918203582F5423D9F05081D5
:104EA000952B9083E0917C03F0917D03908150914C
:104EB0008303952B9083E0917C03F0917D035081D7
:104EC00090918303909595239083469521503109C5
:104ED000E9F6C9CF508190959523E3CFE091800307
:104EE000F0918103808190918503892B808359CF34
:104EF0002FEF3FEF4FE75FE4C701B6010E944A2A58
:104F000018161CF464ED71E091CF2FEF3FEF4FE7DF
:104F10005FECC701B6010E94FE2787FDF3CF20E0BA
:104F200030E0A901C701B6010E94FE2787FF09C032
:104F30006DE287EA92E00E943D06F7FAF094F7F8F6
:104F4000F0942AE037ED43EA5BE3C701B6010E9423
:104F50003D294B015C010E941B2A6B017C010E94D0
:104F600003289B01AC01C501B4010E943C294B01FF
:104F70005C014AE0C701B6010E94691C6EE287EA43
:104F800092E00E943D0620E030E040E251E4C5019D
:104F9000B4010E9464284B015C010E941B2A6B0132
:104FA000F12CE12C4AE0C701B6010E94691CC7013F
:104FB000B6010E9403289B01AC01C501B4010E9407
:104FC0003C2920E030E040E251E40E9464280E9445
:104FD0001B2A90E080E04AE00E94691C2BCF83E30B
:104FE00091E09093520380935103809170039091CC
:104FF0007103009711F00C94402B08950E944028F3
:1050000008F481E00895E89409C097FB3EF4909578
:105010008095709561957F4F8F4F9F4F9923A9F091
:10502000F92F96E9BB279395F69587957795679520
:10503000B795F111F8CFFAF4BB0F11F460FF1BC064
:105040006F5F7F4F8F4F9F4F16C0882311F096E9F7
:1050500011C0772321F09EE8872F762F05C06623A5
:1050600071F096E8862F70E060E02AF09A95660F5E
:10507000771F881FDAF7880F9695879597F9089517
:10508000990F0008550FAA0BE0E8FEEF1616170659
:10509000E807F907C0F012161306E407F50798F0C1
:1050A000621B730B840B950B39F40A2661F0232BDA
:1050B000242B252B21F408950A2609F4A140A69556
:1050C0008FEF811D811D08950E9477280C94E82898
:1050D0000E94DA2838F00E94E12820F0952311F090
:1050E0000C94D1280C94D72811240C941C290E94CC
:1050F000F92870F3959FC1F3950F50E0551F629FFB
:10510000F001729FBB27F00DB11D639FAA27F00D20
:10511000B11DAA1F649F6627B00DA11D661F829F47
:105120002227B00DA11D621F739FB00DA11D621F2C
:10513000839FA00D611D221F749F3327A00D611D49
:10514000231F849F600D211D822F762F6A2F11242B
:105150009F5750409AF0F1F088234AF0EE0FFF1F5E
:10516000BB1F661F771F881F91505040A9F79E3FB5
:10517000510580F00C94D1280C941C295F3FE4F376
:10518000983ED4F3869577956795B795F795E7950B
:105190009F5FC1F7FE2B880F911D9695879597F914
:1051A000089597F99F6780E870E060E008959FEFA9
:1051B00080EC089500240A941616170618060906AE
:1051C000089500240A94121613061406050608957D
:1051D000092E0394000C11F4882352F0BB0F40F405
:1051E000BF2B11F460FF04C06F5F7F4F8F4F9F4F45
:1051F000089557FD9058440F551F59F05F3F71F0C7
:105200004795880F97FB991F61F09F3F79F087952D
:105210000895121613061406551FF2CF4695F1DFB6
:1052200008C0161617061806991FF1CF8695710546
:10523000610508940895E894BB2766277727CB017A
:1052400097F908950E942D29A59F900DB49F900D68
:10525000A49F800D911D11240895A29FB001B39FBA
:10526000C001A39F700D811D1124911DB29F700D6F
:10527000811D1124911D08955058BB27AA270E9413
:1052800054290C94E8280E94DA2838F00E94E1287A
:1052900020F039F49F3F19F426F40C94D7280EF42B
:1052A000E095E7FB0C94D128E92F0E94F92858F3E8
:1052B000BA17620773078407950720F079F4A6F5FB
:1052C0000C941B290EF4E0950B2EBA2FA02D0B0188
:1052D000B90190010C01CA01A0011124FF27591B3B
:1052E00099F0593F50F4503E68F11A16F040A22F41
:1052F000232F342F4427585FF3CF469537952795B2
:10530000A795F0405395C9F77EF41F16BA0B620BB0
:10531000730B840BBAF09150A1F0FF0FBB1F661FF7
:10532000771F881FC2F70EC0BA0F621F731F841F3A
:1053300048F4879577956795B795F7959E3F08F060
:10534000B0CF9395880F08F09927EE0F9795879522
:1053500008950E94BD290C94E8280E94E12858F085
:105360000E94DA2840F029F45F3F29F00C94D128FC
:1053700051110C941C290C94D7280E94F92868F329
:105380009923B1F3552391F3951B550BBB27AA27FE
:1053900062177307840738F09F5F5F4F220F331F38
:1053A000441FAA1FA9F335D00E2E3AF0E0E832D000
:1053B00091505040E695001CCAF72BD0FE2F29D003
:1053C000660F771F881FBB1F261737074807AB07D5
:1053D000B0E809F0BB0B802DBF01FF2793585F4F4A
:1053E0003AF09E3F510578F00C94D1280C941C297A
:1053F0005F3FE4F3983ED4F3869577956795B7952C
:10540000F7959F5FC9F7880F911D9695879597F936
:105410000895E1E0660F771F881FBB1F62177307AF
:105420008407BA0720F0621B730B840BBA0BEE1FC4
:1054300088F7E09508950E94012988F09F5798F019
:10544000B92F9927B751B0F0E1F0660F771F881F89
:10545000991F1AF0BA95C9F714C0B13091F00E94A3
:105460001B29B1E008950C941B29672F782F8827FA
:10547000B85F39F0B93FCCF3869577956795B395CA
:10548000D9F73EF490958095709561957F4F8F4F39
:105490009F4F08950E94402808F48FEF08950E94BE
:1054A0004028880B990B089597FB072E16F400945B
:1054B00007D077FD09D00E948A2A07FC05D03EF468
:1054C000909581959F4F0895709561957F4F0895B0
:1054D000A1E21A2EAA1BBB1BFD010DC0AA1FBB1FF8
:1054E000EE1FFF1FA217B307E407F50720F0A21B6A
:1054F000B30BE40BF50B661F771F881F991F1A94D7
:1055000069F760957095809590959B01AC01BD0100
:10551000CF010895AA1BBB1B51E107C0AA1FBB1FE7
:10552000A617B70710F0A61BB70B881F991F5A952F
:10553000A9F780959095BC01CD010895EE0FFF1F4E
:105540000590F491E02D09940F931F93CF93DF936F
:105550008230910510F482E090E0E091C903F0916F
:10556000CA0330E020E0B0E0A0E0309799F42115C4
:10557000310509F44AC0281B390B24303105D8F510
:105580008A819B816115710589F1FB019383828377
:10559000FE0111C0408151810281138148175907D2
:1055A000E0F04817590799F4109761F012960C93A0
:1055B000129713961C933296CF01DF91CF911F91D2
:1055C0000F9108950093C9031093CA03F4CF2115D6
:1055D000310551F04217530738F0A901DB019A0158
:1055E000BD01DF01F801C1CFEF01F9CF9093CA03EC
:1055F0008093C903CDCFFE01E20FF31F81939193F6
:105600002250310939832883D7CF2091C7033091A5
:10561000C803232B41F420910701309108013093F6
:10562000C8032093C703209105013091060121157D
:10563000310541F42DB73EB74091090150910A015F
:10564000241B350BE091C703F091C803E217F30761
:10565000A0F42E1B3F0B2817390778F0AC014E5FE2
:105660005F4F2417350748F04E0F5F1F5093C80354
:105670004093C703819391939FCFF0E0E0E09CCFEC
:10568000CF93DF930097E9F0FC01329713821282E7
:10569000A091C903B091CA03ED0130E020E010975A
:1056A000A1F420813181820F931F2091C703309193
:1056B000C8032817390709F061C0F093C803E093C5
:1056C000C703DF91CF910895EA01CE17DF07E8F510
:1056D0004A815B819E0141155105B1F7E901FB83C8
:1056E000EA8349915991C40FD51FEC17FD0761F466
:1056F000808191810296840F951FE90199838883A7
:10570000828193819B838A83F0E0E0E012968D9101
:105710009C9113970097B9F52D913C911197CD016C
:105720000296820F931F2091C7033091C803281758
:10573000390739F6309751F51092CA031092C90310
:10574000B093C803A093C703BCCFD383C283408167
:105750005181840F951FC817D90761F44E5F5F4FC1
:1057600088819981480F591F518340838A819B8189
:10577000938382832115310509F0B0CFF093CA03DA
:10578000E093C9039ECFFD01DC01C0CF13821282DA
:10579000D7CF81E090E0F8940C94D52BDC0101C0C8
:1057A0006D9341505040E0F7089515E0CFE6D5E005
:1057B00004C0FE010E949E2A2196C037D107C9F776
:0457C000F894FFCF8B
:1057C400B007B007FF0000CB038000000000003DDD
:1057D400069D05CA05A506FB05D905ED05000000D3
:1057E400008E0A610A10119A055A0A470A380A00FB
:1057F400000000550D9D0510110F1158099A05FA66
:105804000FD20FEE0FE20F62109A051B0BD41BC8C8
:105814000811091B0FFE0E860E270E000000004320
:1058240017FA14D518CE1A671A63158C11D3167A81
:1058340016121A1518A5140D0A00535831323638A9
:10584400544C20496E697469616C697A696E672E7B
:105854002E2E005353443133303620616C6C6F6309
:105864006174696F6E206661696C656400554E49A8
:10587400545953415420546573743200525353495C
:105884003A2000554E495459536174006E616E00BC
:08589400696E66006F76660084
:00000001FF
